{
  "contractName": "Auction",
  "abi": [
    {
      "inputs": [],
      "stateMutability": "nonpayable",
      "type": "constructor"
    },
    {
      "inputs": [],
      "name": "highestBid",
      "outputs": [
        {
          "internalType": "uint256",
          "name": "",
          "type": "uint256"
        }
      ],
      "stateMutability": "view",
      "type": "function",
      "constant": true
    },
    {
      "inputs": [],
      "name": "highestBidder",
      "outputs": [
        {
          "internalType": "address",
          "name": "",
          "type": "address"
        }
      ],
      "stateMutability": "view",
      "type": "function",
      "constant": true
    },
    {
      "inputs": [
        {
          "internalType": "address",
          "name": "",
          "type": "address"
        }
      ],
      "name": "userBalances",
      "outputs": [
        {
          "internalType": "uint256",
          "name": "",
          "type": "uint256"
        }
      ],
      "stateMutability": "view",
      "type": "function",
      "constant": true
    },
    {
      "stateMutability": "payable",
      "type": "receive",
      "payable": true
    },
    {
      "inputs": [
        {
          "internalType": "address",
          "name": "addr",
          "type": "address"
        }
      ],
      "name": "isBidder",
      "outputs": [
        {
          "internalType": "bool",
          "name": "",
          "type": "bool"
        }
      ],
      "stateMutability": "view",
      "type": "function",
      "constant": true
    },
    {
      "inputs": [],
      "name": "bid",
      "outputs": [],
      "stateMutability": "payable",
      "type": "function",
      "payable": true
    },
    {
      "inputs": [],
      "name": "withdraw",
      "outputs": [],
      "stateMutability": "nonpayable",
      "type": "function"
    }
  ],
  "bytecode": "0x608060405234801561001057600080fd5b5060006001819055506107e3806100286000396000f3fe6080604052600436106100595760003560e01c80631998aeef1461006557806319fde1f61461006f57806326224c64146100ac5780633ccfd60b146100e957806391f9015714610100578063d57bde791461012b57610060565b3661006057005b600080fd5b61006d610156565b005b34801561007b57600080fd5b506100966004803603810190610091919061049a565b610227565b6040516100a39190610597565b60405180910390f35b3480156100b857600080fd5b506100d360048036038101906100ce919061049a565b610272565b6040516100e09190610632565b60405180910390f35b3480156100f557600080fd5b506100fe61028a565b005b34801561010c57600080fd5b5061011561045b565b604051610122919061057c565b60405180910390f35b34801561013757600080fd5b5061014061047f565b60405161014d9190610632565b60405180910390f35b600154341161019a576040517f08c379a0000000000000000000000000000000000000000000000000000000008152600401610191906105f2565b60405180910390fd5b34600260003373ffffffffffffffffffffffffffffffffffffffff1673ffffffffffffffffffffffffffffffffffffffff16815260200190815260200160002081905550336000806101000a81548173ffffffffffffffffffffffffffffffffffffffff021916908373ffffffffffffffffffffffffffffffffffffffff16021790555034600181905550565b600080600260008473ffffffffffffffffffffffffffffffffffffffff1673ffffffffffffffffffffffffffffffffffffffff16815260200190815260200160002054119050919050565b60026020528060005260406000206000915090505481565b61029333610227565b6102d2576040517f08c379a00000000000000000000000000000000000000000000000000000000081526004016102c990610612565b60405180910390fd5b60008054906101000a900473ffffffffffffffffffffffffffffffffffffffff1673ffffffffffffffffffffffffffffffffffffffff163373ffffffffffffffffffffffffffffffffffffffff161415610361576040517f08c379a0000000000000000000000000000000000000000000000000000000008152600401610358906105b2565b60405180910390fd5b3373ffffffffffffffffffffffffffffffffffffffff166108fc600260003373ffffffffffffffffffffffffffffffffffffffff1673ffffffffffffffffffffffffffffffffffffffff168152602001908152602001600020549081150290604051600060405180830381858888f19350505050610414576040517f08c379a000000000000000000000000000000000000000000000000000000000815260040161040b906105d2565b60405180910390fd5b6000600260003373ffffffffffffffffffffffffffffffffffffffff1673ffffffffffffffffffffffffffffffffffffffff16815260200190815260200160002081905550565b60008054906101000a900473ffffffffffffffffffffffffffffffffffffffff1681565b60015481565b60008135905061049481610796565b92915050565b6000602082840312156104ac57600080fd5b60006104ba84828501610485565b91505092915050565b6104cc8161065e565b82525050565b6104db81610670565b82525050565b60006104ee60308361064d565b91506104f9826106a6565b604082019050919050565b600061051160198361064d565b915061051c826106f5565b602082019050919050565b6000610534602e8361064d565b915061053f8261071e565b604082019050919050565b600061055760158361064d565b91506105628261076d565b602082019050919050565b6105768161069c565b82525050565b600060208201905061059160008301846104c3565b92915050565b60006020820190506105ac60008301846104d2565b92915050565b600060208201905081810360008301526105cb816104e1565b9050919050565b600060208201905081810360008301526105eb81610504565b9050919050565b6000602082019050818103600083015261060b81610527565b9050919050565b6000602082019050818103600083015261062b8161054a565b9050919050565b6000602082019050610647600083018461056d565b92915050565b600082825260208201905092915050565b60006106698261067c565b9050919050565b60008115159050919050565b600073ffffffffffffffffffffffffffffffffffffffff82169050919050565b6000819050919050565b7f596f7520617265207468652068696768657374206269646465722120596f752060008201527f63616e6e6f742077697468647261772100000000000000000000000000000000602082015250565b7f43616e6e6f742073656e6420757365722062616c616e63652100000000000000600082015250565b7f596f757220626964206973206c6f776572207468616e2074686520637572726560008201527f6e74206869676865737420626964000000000000000000000000000000000000602082015250565b7f596f7520617265206e6f74206120626964646572210000000000000000000000600082015250565b61079f8161065e565b81146107aa57600080fd5b5056fea26469706673582212201ac9171b9b179b0ef7cb1d7db78c4c888f0292ac14ce160b27ea73c14b398cf464736f6c63430008030033",
  "immutableReferences": {},
  "source": "// SPDX-License-Identifier: GPL-3.0\r\n\r\npragma solidity >=0.7.0 <0.9.0;\r\n\r\ncontract Auction {\r\n    \r\n    address public highestBidder; // The highest bidder's address\r\n    uint public highestBid; // The amount of the highest bid\r\n    \r\n    \r\n    mapping(address => uint) public userBalances; // mapping for the amount to return\r\n    \r\n    \r\n    constructor() {\r\n        // contractor\r\n        // 1. Initialize highest bid and the bidder's address\r\n        //highestBidder = msg.sender; // Initialize highest bidder as the owner\r\n        highestBid = 0;\r\n    }\r\n    \r\n    modifier onlyBidder(){\r\n        require(isBidder(msg.sender),\"You are not a bidder!\");\r\n        _;\r\n    }\r\n    \r\n    function isBidder(address addr) public view returns(bool){\r\n        return (userBalances[addr] > 0);\r\n    }\r\n    \r\n    \r\n    function bid() public payable {\r\n    // Function to process bid\r\n    // 1. Check if the bid is greater than the current highest bid\r\n    // 2. Update status variable and the amount to return\r\n        require(msg.value  > highestBid, \"Your bid is lower than the current highest bid\");\r\n        userBalances[msg.sender] = msg.value;\r\n        highestBidder=msg.sender;\r\n        highestBid = msg.value;\r\n        \r\n    }\r\n    \r\n    \r\n    function withdraw() public onlyBidder{\r\n    // Function to withdraw the amount of bid to return\r\n    // 1. Check if the amount to return is greater than zero\r\n    // 2. Update status variable and return bid\r\n    \r\n        // 1 is covered with onlyBidder modifier\r\n        \r\n        require(msg.sender != highestBidder, \"You are the highest bidder! You cannot withdraw!\");\r\n        require(payable(msg.sender).send(userBalances[msg.sender]),\"Cannot send user balance!\");\r\n        userBalances[msg.sender]=0;\r\n    }\r\n    \r\n    receive() external payable {}\r\n}\r\n",
  "sourcePath": "/home/vagelis/ergasia 521/contracts/Auction.sol",
  "compiler": {
    "name": "solc",
    "version": "0.8.3+commit.8d00100c.Emscripten.clang"
  },
  "schemaVersion": "3.4.0",
  "updatedAt": "2021-05-19T13:34:36.529Z",
  "networkType": "ethereum",
  "devdoc": {
    "kind": "dev",
    "methods": {},
    "version": 1
  },
  "userdoc": {
    "kind": "user",
    "methods": {},
    "version": 1
  }
}